:03000000021000EB
:0300030002138362
:03000B0002138A53
:1010000011DCD288D2AFD2A8D2A9755B0075890154
:10101000758C3C758AB0D28C511651B871AC80F881
:101020007908C291E540C2905480B48004D2928085
:1010300002C292D290E54023F540D9E822C2918ABB
:101040004011208B401120D29122C2918A40112060
:101050008B401120D2907540001120754000112066
:10106000D29122C2918A4011208B401120D29075DA
:10107000400011207540001120754000112075407E
:10108000001120D29122C2918A4011208B40112060
:10109000D29075400011207540001120754000115C
:1010A000207540001120754000112075400011206E
:1010B000D29122C2918A40112085414011208A405C
:1010C000112085424011208A401120854340112083
:1010D0008A4011208544401120D291227A097B0058
:1010E000113D7A0A7B03113D7A0B7B07113D7A0C87
:1010F0007B01113D7A0F7B00113D7A097B00114A7B
:101100007A0A7B03114A7A0B7B07114A7A0C7B011E
:10111000114A7A0F7B00114A7A097B0011637A0A1F
:101120007B0311637A0B7B0711637A0C7B011163DC
:081130007A0F7B0011637A09BC
:101138007B0011867A0A7B0311867A0B7B0711865E
:101148007A0C7B0111867A0F7B00118622C29300EC
:10115800C29500D293007808EA5401B40104D294ED
:101168008002C294EA03FAD29500C29500D8E978C1
:1011780008EB5401B40104D2948002C294EB03FB3F
:10118800D29500C29500D8E9C2930022C29300C24A
:101198009500D293007808EA5401B40104D29480EF
:1011A80002C294EA03FAD29500C29500D8E9007801
:1011B80008754500A2945007E54513F5458005E5F7
:1011C8004503F545D29500C29500D8E8C29300D2F0
:1011D8009500C29400D29400227A8E7B0031557912
:1011E80000E99013C993FAE99013D093FB3155099C
:1011F800B907EE7A8E7B803155229013C279467BEF
:1012080000EB93FA31940BA74509B94DF42251022A
:10121800794D784C75F010E684F709E6540FF70914
:0C12280018B845F02278007408854DF0DD
:10123400A42890142793F5417408854EF0A42890AF
:1012440014279375F01084424174088551F0A42842
:101254009013D793F54274088552F0A4289013D7BD
:101264009375F02084424274088552F0A4289013A8
:10127400D79375F008A4F54374088553F0A4289017
:1012840013D79375F00884424374088554F0A42856
:101294009013D793F54474088550F0A4289014272C
:1012A4009375F020844244E8FA0A11B308B808019F
:1012B4002202122F51027A01E548C4540F75F00836
:1012C400A4FDEA2D149013D793F530E548540F7517
:1012D400F008A4FDEA2D149013D793F531232323AA
:1012E400540F4530F541E53123232354F0F531E51E
:1012F40047C4540F75F008A4FDEA2D149013D79336
:10130400F5322323540F4531BA020444108015BA30
:1013140003044410800EBA050444108007BA06047E
:1013240044108000F5428002808EE532232354F07D
:0B133400F532E547540F75F008A4FDEA
:10133F00EA2D149013D793F533030303541E45324C
:10134F00F543E546C4540F75F008A4FDEA2D14903B
:10135F0014279303F533E546540F75F008A4FDEAFF
:10136F002D14901427932323234533F54411B30AE7
:10137F00BA09AA225116512D71B532758C3C758A56
:10138F00B0E55B6464600AE55004F550D28C011837
:10139F0032D29671ACC296755B000118227EC87F5F
:1013AF0019DFFEDEFA227D327EC87FC8DFFEDEFA4D
:1013BF00DDF62281838587898B8D80828486888A5A
:1013CF008C00482321050622F09090909090F00019
:1013DF004040404040404000F01010F08080F0004E
:1013EF00F01010F01010F000909090F0101010000E
:1013FF00F08080F01010F000F08080F09090F000FE
:10140F00F010101010101000F09090F09090F0006D
:10141F00F09090F01010F0000000E0A0A0A0E0000D
:10142F0000004040404040000000E020E080E0002D
:10143F000000E020E020E0000000A0A0E02020005D
:10144F000000E080E020E0000000E080E0A0E0008D
:10145F000000E020202020000000E0A0E0A0E0003D
:08146F000000E0A0E020E00015
:00000001FF
